S012000044656275672F536E616B652E733139DA
S315200000000248854600F0C8F8FEE7C04600C0012039
S3152000001080B500AF0E4B0F4A1A600F4B1B880E4A55
S31520000020FF210B409BB213800B4A0B4B12881A8080
S315200000300A4B1A68094B1204120C1A60074B1A68ED
S31520000040064BAA2109040A431A60C046BD4680BD54
S31520000050000C024055550055040C02400C0C024081
S3152000006080B582B000AF78607B68042B1BD07B689C
S31520000070042B1CD87B68032B11D07B68032B16D846
S315200000807B68012B03D07B68022B04D00FE00C4B3E
S3152000009010221A700FE00A4B20221A700BE0084B30
S315200000A040221A7007E0064B80221A7003E0044BA8
S315200000B000221A70C046C046BD4602B080BDC0466A
S315200000C0150C024080B582B000AF124AFB1D127893
S315200000D01A70FB1D1B780822134001D0042315E05B
S315200000E0FB1D1B780422134001D003230EE0FB1DC9
S315200000F01B780222134001D0022307E0FB1D1B7848
S315200001000122134001D0012300E000231800BD4640
S3152000011002B080BD110C024090B587B000AF3B0005
S31520000120164A13CA13C312681A6001237B6119E0A9
S315200001307B691800FFF794FFFFF7C4FF03003B61BC
S315200001403B69002B0BD00020FFF78AFF7B69013B20
S315200001509A003B69013BD3183A00D35C09E07B69DE
S3152000016001337B617B69042BE2DD0020FFF778FFFA
S31520000170FF231800BD4607B090BDC046A40100204D
S31520000180F0DF7047C046F1DF7047C046F2DF7047A8
S31520000190C046F3DF7047C04680B500AFC046BD46B7
S315200001A080BD00000102030A0405060B0708090C9E
S309200001B00E000F0DFB
S70520000000DA
