S012000044656275672F536E616B652E733139DA
S315200000000248854600F0ACFAFEE7C04600C0012053
S31520000010F0DF7047C046F1DF7047C046F2DF704719
S31520000020C046F3DF7047C04680B500AF0E4B0F4A7F
S315200000301A600F4B1B880E4AFF210B409BB2138080
S315200000400B4A0B4B12881A800A4B1A68094B12046A
S31520000050120C1A60074B1A68064BAA2109040A4398
S315200000601A60C046BD4680BD000C0240555500555D
S31520000070040C02400C0C024080B582B000AF7860C0
S315200000807B68042B1BD07B68042B1CD87B68032B36
S3152000009011D07B68032B16D87B68012B03D07B6895
S315200000A0022B04D00FE00C4B10221A700FE00A4BE3
S315200000B020221A700BE0084B40221A7007E0064BEC
S315200000C080221A7003E0044B00221A70C046C046F4
S315200000D0BD4602B080BDC046150C024080B582B038
S315200000E000AF124AFB1D12781A70FB1D1B780822DE
S315200000F0134001D0042315E0FB1D1B780422134076
S3152000010001D003230EE0FB1D1B780222134001D0F1
S31520000110022307E0FB1D1B780122134001D0012397
S3152000012000E000231800BD4602B080BD110C02403D
S3152000013090B587B000AF3B00164A13CA13C31268A6
S315200001401A6001237B6119E07B691800FFF794FF91
S31520000150FFF7C4FF03003B613B69002B0BD0002057
S31520000160FFF78AFF7B69013B9A003B69013BD31865
S315200001703A00D35C09E07B6901337B617B69042B00
S31520000180E2DD0020FFF778FFFF231800BD4607B009
S3152000019090BDC046200B002080B584B000AF7860AB
S315200001A00023FB6021E07B681A68FB6804335B0050
S315200001B0D31804331B781A007B685B68DB00D318DE
S315200001C0581C7B681A68FB6804335B00D318053318
S315200001D01B781A007B689B68DB00D3180133190053
S315200001E0FFF71CFFFB680133FB607B681B681B68FD
S315200001F0FA689A42D7DBC046C046BD4604B080BDE9
S3152000020080B584B000AF78600023FB6021E07B6876
S315200002101A68FB6804335B00D31804331B781A0072
S315200002207B685B68DB00D318581C7B681A68FB6800
S3152000023004335B00D31805331B781A007B689B6850
S31520000240DB00D31801331900FFF7EBFEFB680133FF
S31520000250FB607B681B681B68FA689A42D7DBC0463E
S31520000260C046BD4604B080BD80B500AF0C4B002211
S315200002701A600C4B29221A600B4B00221A60084B7D
S3152000028005221A60C046064B1A6880235B0213407B
S31520000290F9D0034B00221A60C046BD4680BDC04639
S315200002A010E000E014E000E018E000E080B582B045
S315200002B000AF78607B68FA229100180000F0B0F950
S315200002C003007B607B6801337B600AE0FFF7CCFF8D
S315200002D0FFF7CAFFFFF7C8FFFFF7C6FF7B68013BA2
S315200002E07B607B68002BF1D1C046C046BD4602B07C
S315200002F080BD80B582B000AF786007E0FA239B000E
S315200003001800FFF7D3FF7B68013B7B607B68002BDF
S31520000310F4D1C046C046BD4602B080BD80B58AB085
S3152000032000AF78607B681B697B627B6A5A687B6852
S315200003305B68D3183B627B6A9A687B689B68D31894
S31520000340FB6108217B180C4A1A607B183A6A5A60AE
S315200003507B18FA699A607B18084ADA607B18084A83
S315200003601A617A187B681100180000F00BF8C04655
S31520000370BD460AB080BDC04638070020990100203E
S315200003800102002080B53B4FBD4400AF7860396044
S31520000390394B842292009446BC4463443A681A60DE
S315200003A0012383229200BA18136025E07B68DB685C
S315200003B083229200BA1812689A4203DB7B681B6874
S315200003C0002B12D0832080003B181B685A1E7B68A6
S315200003D004329200D158284B842292009446BC4481
S315200003E063443A1812689200D15083229200BB18B7
S315200003F01B680133BA1813607B68DB68832292007E
S31520000400BA1812689A42D1DD7B681B68002B04D08B
S315200004107B68DB685A1C7B68DA60002382229200A4
S31520000420BA18136016E0144B842292009446BC44FA
S315200004306344822080003A1812689200D1587B6863
S315200004403A18126804329200D1503B181B680133C7
S315200004503A1813607B68DB6882229200BA18126809
S315200004609A42E0DBC046C046BD4684239B009D449D
S3152000047080BDC046F0FDFFFFF8FDFFFFB0B588B098
S3152000048000AF78607B681A690C217B1831CA31C3AA
S3152000049011CA11C37B181B697A1810009847C046E9
S315200004A0BD4608B0B0BDB0B588B000AF78600023B7
S315200004B0FB6112E07B68FA6904329200D258082167
S315200004C07B1831CA31C311CA11C37B18DB687A186D
S315200004D010009847FB690133FB617B68DB68FA698A
S315200004E09A42E7DBC046C046BD4608B0B0BDC0460E
S315200004F080B584B000AF0123FB6011E00123BB600F
S3152000050008E0FA68BB6811001800FFF787FDBB6892
S315200005100133BB60BB68802BF3DDFB680833FB60CF
S31520000520FB68402BEADD01237B6011E001233B6061
S3152000053008E03A687B6811001800FFF76FFD3B68FA
S3152000054001333B603B68402BF3DD7B6808337B60DF
S315200005507B68802BEADDC046C046BD4604B080BD20
S3152000056090B585B000AF2B4BFB602B4BBB60BB68B7
S315200005702A4A1A61FFF758FDFFF74AFDFFF74BFDA0
S31520000580FFF749FDBA6886239B00D358BA68100046
S315200005909847BA6884239B00D358BA6810009847B6
S315200005A0FFF7A6FFFB68DB68FA6810009847FC1D7A
S315200005B0FFF7BEFD03002370FB1D1B78062B08D01A
S315200005C025DC052B14D022DC022B18D0042B07D0D7
S315200005D01DE0BB6801225A60BB6800229A6017E0C2
S315200005E0BB68012252425A60BB6800229A600FE023
S315200005F0BB6800225A60BB6801229A6008E0BB688B
S3152000060000225A60BB68012252429A6000E0C0462E
S31520000610B6E7C0465008002004090020F008002054
S31520000620002243088B4274D303098B425FD3030A0B
S315200006308B4244D3030B8B4228D3030C8B420DD31E
S31520000640FF22090212BA030C8B4202D312120902AC
S3152000065065D0030B8B4219D300E0090AC30B8B42EA
S3152000066001D3CB03C01A5241830B8B4201D38B0398
S31520000670C01A5241430B8B4201D34B03C01A52413D
S31520000680030B8B4201D30B03C01A5241C30A8B4280
S3152000069001D3CB02C01A5241830A8B4201D38B026B
S315200006A0C01A5241430A8B4201D34B02C01A52410F
S315200006B0030A8B4201D30B02C01A5241CDD2C30981
S315200006C08B4201D3CB01C01A524183098B4201D3FD
S315200006D08B01C01A524143098B4201D34B01C01AE8
S315200006E0524103098B4201D30B01C01A5241C30860
S315200006F08B4201D3CB00C01A524183088B4201D3CF
S315200007008B00C01A524143088B4201D34B00C01ABA
S315200007105241411A00D20146524110467047FFE726
S3152000072001B5002000F006F802BDC0460029F7D02A
S3152000073076E770477047C04640000000080000007A
S31520000740080000000000000100020003000400056C
S315200007500006000701000101010201030104010551
S315200007600106010702000201020202030204020539
S315200007700206020703000301030203030304030521
S315200007800306030704000401040204030404040509
S3152000079004060407050005010502050305040505F1
S315200007A005060507060006010602060306040605D9
S315200007B006060607070007010702070307040705C1
S315200007C007060707150000000800000008000000C3
S315200007D005000600040101020202030204020502CA
S315200007E006020003070300040704000507050106A7
S315200007F0060602070307040705070000000000009D
S3152000080000000000000000000000000000000000C2
S3152000081000000000000000000000000000000000B2
S3152000082000000000000000000000000000000000A2
S315200008300000000000000000000000000000000092
S315200008400000000000000000000000000000000082
S31520000850C4070020010000000100000099010020CB
S3152000086001020020400000000800000008000000EF
S315200008700000000100020003000400050006000736
S31520000880010001010102010301040105010601071E
S315200008900200020102020203020402050206020706
S315200008A003000301030203030304030503060307EE
S315200008B004000401040204030404040504060407D6
S315200008C005000501050205030504050505060507BE
S315200008D006000601060206030604060506060607A6
S315200008E0070007010702070307040705070607078E
S315200008F06408002008000000040000009901002080
S31520000900010200200000000001000000000000009D
S3152000091001000000000000000000000000000000B0
S3152000092000000000000000000000000000000000A1
S315200009300000000000000000000000000000000091
S315200009400000000000000000000000000000000081
S315200009500000000000000000000000000000000071
S315200009600000000000000000000000000000000061
S315200009700000000000000000000000000000000051
S315200009800000000000000000000000000000000041
S315200009900000000000000000000000000000000031
S315200009A00000000000000000000000000000000021
S315200009B00000000000000000000000000000000011
S315200009C00000000000000000000000000000000001
S315200009D000000000000000000000000000000000F1
S315200009E000000000000000000000000000000000E1
S315200009F000000000000000000000000000000000D1
S31520000A0000000000000000000000000000000000C0
S31520000A1000000000000000000000000000000000B0
S31520000A2000000000000000000000000000000000A0
S31520000A300000000000000000000000000000000090
S31520000A400000000000000000000000000000000080
S31520000A500000000000000000000000000000000070
S31520000A600000000000000000000000000000000060
S31520000A700000000000000000000000000000000050
S31520000A800000000000000000000000000000000040
S31520000A900000000000000000000000000000000030
S31520000AA00000000000000000000000000000000020
S31520000AB00000000000000000000000000000000010
S31520000AC00000000000000000000000000000000000
S31520000AD000000000000000000000000000000000F0
S31520000AE000000000000000000000000000000000E0
S31520000AF000000000000000000000000000000000D0
S31520000B0000000000000000000000000000000000BF
S31520000B1000000000A70400207D0400201D03002003
S31520000B200102030A0405060B0708090C0E000F0D27
S70520000000DA
